S0200000536C6176655F73656E736F725F756C747261736F6E69636F2E73726563FE
S11300000C9434000C9446000C9446000C94460066
S11300100C9446000C9446000C9446000C94460044
S11300200C9446000C9446000C9446000C94460034
S11300300C9446000C9446000C9446000C94460024
S11300400C9446000C9446000C9446000C94460014
S11300500C9446000C9446000C9446000C94460004
S11300600C94EC000C94460011241FBECFEFD8E092
S1130070DEBFCDBF21E0A0E0B1E001C01D92A530FC
S1130080B207E1F70E94AE000C94D8020C94000071
S113009097B19F7C97B9880F8093BA0085E48093C9
S11300A0BC0008958BB180618BB983E08A95F1F728
S11300B000008BB18F7E8BB90895FC0140EE53E9AB
S11300C064E070E005C04150510961097109A9F16A
S11300D099B1292F207295FDF6CF40EE53E964E0E3
S11300E070E005C0415051096109710939F199B1B4
S11300F0892F807295FFF6CF1092850010928400AC
S113010082E08093810040EE53E964E070E009C02E
S1130110415051096109710921F410928100822F23
S113012008954D99F5CF10928100809184009091AB
S113013085009183808381E0089580E008958AB1E9
S113014080618AB98AB18F7D8AB910928000109239
S11301508100109285001092840008950E949F00EF
S11301608BB18F7E8BB98BB18F7D8BB984B180625B
S113017084B985B18F7D85B980E30E944800789465
S11301800E94520083E091E00E945D008823D1F038
S1130190609103017091040180E090E00E94DD0110
S11301A020E030E040E05FE30E946B0220E030E0BA
S11301B048E652E40E943C010E94AE0170930101A2
S11301C060930001809102018235D1F683B180628F
S11301D083B910920201D4CF1F920F920FB60F92DF
S11301E011248F93CF93DF931F92CDB7DEB7809105
S11301F0B9008C7F803A81F138F4803781F08038FF
S113020091F0803669F50BC0883BA1F018F4883A68
S113021089F026C0803CE1F0883CD1F021C085EC17
S11302208093BC0020C08091BB00898385EC8093BF
S1130230BC0019C08981823529F480910001809322
S1130240BB0002C01092BB0085EC8093BC000BC0C5
S113025085EC8093BC0007C085EC8093BC0003C090
S113026085EC8093BC000F90DF91CF918F910F901C
S11302700FBE0F901F9018950E9450010C943102EC
S11302800E942A0258F00E94230240F029F45F3FA2
S113029029F00C941A0251110C9465020C9420025A
S11302A00E94420268F39923B1F3552391F3951BFD
S11302B0550BBB27AA2762177307840738F09F5F83
S11302C05F4F220F331F441FAA1FA9F335D00E2EF0
S11302D03AF0E0E832D091505040E695001CCAF75D
S11302E02BD0FE2F29D0660F771F881FBB1F261720
S11302F037074807AB07B0E809F0BB0B802DBF01F7
S1130300FF2793585F4F3AF09E3F510578F00C94C5
S11303101A020C9465025F3FE4F3983ED4F3869589
S113032077956795B795F7959F5FC9F7880F911DE6
S11303309695879597F90895E1E0660F771F881FD2
S1130340BB1F621773078407BA0720F0621B730B85
S1130350840BBA0BEE1F88F7E09508950E944A02B9
S113036088F09F5798F0B92F9927B751B0F0E1F072
S1130370660F771F881F991F1AF0BA95C9F714C022
S1130380B13091F00E946402B1E008950C946402CB
S1130390672F782F8827B85F39F0B93FCCF386955B
S11303A077956795B395D9F73EF4909580957095B8
S11303B061957F4F8F4F9F4F0895E89409C097FB35
S11303C03EF490958095709561957F4F8F4F9F4F28
S11303D09923A9F0F92F96E9BB279395F69587956C
S11303E077956795B795F111F8CFFAF4BB0F11F42F
S11303F060FF1BC06F5F7F4F8F4F9F4F16C08823D6
S113040011F096E911C0772321F09EE8872F762F0B
S113041005C0662371F096E8862F70E060E02AF04C
S11304209A95660F771F881FDAF7880F9695879538
S113043097F9089597F99F6780E870E060E0089560
S11304409FEF80EC089500240A94161617061806E8
S11304500906089500240A941216130614060506C4
S11304600895092E0394000C11F4882352F0BB0F55
S113047040F4BF2B11F460FF04C06F5F7F4F8F4FB8
S11304809F4F089557FD9058440F551F59F05F3FF3
S113049071F04795880F97FB991F61F09F3F79F0A2
S11304A087950895121613061406551FF2CF469524
S11304B0F1DF08C0161617061806991FF1CF8695A6
S11304C07105610508940895E894BB27662777278A
S11304D0CB0197F908950E947E020C9431020E9488
S11304E0230238F00E942A0220F0952311F00C9484
S11304F01A020C94200211240C9465020E944202F8
S113050070F3959FC1F3950F50E0551F629FF00162
S1130510729FBB27F00DB11D639FAA27F00DB11D7B
S1130520AA1F649F6627B00DA11D661F829F222704
S1130530B00DA11D621F739FB00DA11D621F839F8B
S1130540A00D611D221F749F3327A00D611D231F61
S1130550849F600D211D822F762F6A2F11249F57AF
S113056050409AF0F1F088234AF0EE0FFF1FBB1FB2
S1130570661F771F881F91505040A9F79E3F510571
S113058080F00C941A020C9465025F3FE4F3983EE9
S1130590D4F3869577956795B795F795E7959F5F1B
S11305A0C1F7FE2B880F911D9695879597F90895AD
S10705B0F894FFCFE9
S9030000FC
