S0200000536C6176655F73656E736F725F756C747261736F6E69636F2E73726563FE
S11300000C9434000C9446000C9446000C94460066
S11300100C9446000C9446000C9446000C94460044
S11300200C9446000C9429020C94CD010C944600C7
S11300300C9446000C9446000C9446000C94460024
S11300400C9446000C9446000C9446000C94460014
S11300500C9446000C9446000C9446000C94460004
S11300600C9440020C94460011241FBECFEFD8E03C
S1130070DEBFCDBF21E0A0E0B1E001C01D92AF30F2
S1130080B207E1F70E948C010C94A0020C940000CA
S113009084B1886084B98AB188608AB9E0EBF0E001
S11300A01082A1EBB0E01C92808183608083808108
S11300B0806880838C9184608C93089597B19F7C31
S11300C097B9880F8093BA0085E48093BC000895A3
S11300D0882309F4D3C08091020181110CC080915E
S11300E00C0190910D01909301018093000181E036
S11300F08093020108958130A1F420910C01309184
S11301000D014091000150910101241B350B243F46
S1130110314038F08BB184608BB982E08093020166
S113012008958230A1F420910C0130910D01409189
S1130130000150910101241B350B283E334038F057
S11301408BB188608BB983E080930201089583307A
S1130150A1F420910C0130910D01409100015091C6
S11301600101241B350B2C3D354038F08BB18061E7
S11301708BB984E08093020108958430A1F4209126
S11301800C0130910D014091000150910101241B9B
S1130190350B203D374038F08BB180628BB985E058
S11301A08093020108958530A1F420910C013091CF
S11301B00D014091000150910101241B350B283998
S11301C0384038F08BB180648BB986E080930201AB
S11301D008958630A1F420910C0130910D014091D5
S11301E0000150910101241B350B2C3F384038F09D
S11301F08BB180688BB987E08093020108958730C2
S1130200A1F420910C0130910D0140910001509115
S11302100101241B350B2036394038F088B1826047
S113022088B988E08093020108958830A1F4209170
S11302300C0130910D014091000150910101241BEA
S1130240350B243C394038F088B1846088B989E0A2
S11302508093020108958930D9F480910C01909122
S11302600D012091000130910101821B930B863F07
S1130270994070F088B1816088B90895811108C0EF
S11302808BB183708BB988B1887F88B910920201D1
S1130290089587B1886087B984B18E7F84B910923C
S11302A0800082E48093810086B3806286BBEFE69F
S11302B0F0E0808180628083109285001092840037
S11302C008958AB18C6F8AB987B1876087B98BB179
S11302D083708BB988B1887F88B90E9449010E94D4
S11302E0480084B1806284B985B18F7D85B980E48A
S11302F00E945E00E0E7F0E0808181608083789472
S1130300089588B1886088B983E08A95F1F7000080
S113031088B1877F88B908950E94610195B180E210
S1130320892785B980910C0190910D0120910301D9
S113033030910401821B930B8E36910550F00E947C
S1130340810180910C0190910D019093040180939F
S1130350030180910E018E3419F482E88093B30076
S113036080910E01863411F41092B30080910E0135
S1130370843419F481E00E94680080910E0188356C
S113038019F480E00E94680010920E0183EC99E059
S11303900197F1F700C00000C1CF1F920F920FB672
S11303A00F9211242F933F936F937F938F939F9377
S11303B0AF93BF93EF93FF9380910701811111C015
S11303C0809186009091870090930B0180930A019D
S11303D0E1E8F0E080818F7B808381E080930701F6
S11303E029C08091860090918700909309018093A1
S11303F00801209108013091090180910A0190912E
S11304000B01281B390BAFE9B6E40E9491029695C3
S11304108795929582958F7089279F7089279093ED
S1130420060180930501E1E8F0E080818064808327
S113043010920701FF91EF91BF91AF919F918F911E
S11304407F916F913F912F910F900FBE0F901F904E
S113045018951F920F920FB60F9211248F939F93AA
S113046080910C0190910D01019690930D01809360
S11304700C019F918F910F900FBE0F901F901895B4
S11304801F920F920FB60F9211248F939F93EF93A5
S1130490FF938091B9008C7F803A99F158F48037AA
S11304A0A1F018F4803689F030C0803891F080399A
S11304B081F02BC0883BA9F018F4883A91F025C04C
S11304C0803CC9F0883CB9F020C085EC8093BC0026
S11304D01FC08091BB0080930E0185EC8093BC000B
S11304E017C080910501909106018093BB0085ECB3
S11304F08093BC000DC0ECEBF0E0108285E48083B7
S113050007C085EC8093BC0003C085EC8093BC00DD
S1130510FF91EF919F918F910F900FBE0F901F90BD
S11305201895A29FB001B39FC001A39F700D811DB8
S11305301124911DB29F700D811D1124911D0895E8
S1070540F894FFCF59
S9030000FC
