:100000000C943B000C9458000C9458000C9458002D
:100010000C9458000C9458000C9458000C94580000
:100020000C9458000C9458000C9458000C945800F0
:100030000C9458000C9458000C9458000C945800E0
:100040000C9458000C9458000C949A020C9458008C
:100050000C9458000C9458000C9458000C945800C0
:100060000C9458000C945800F90200030703110384
:100070001B0325032F0311241FBECFEFD8E0DEBFE3
:10008000CDBF11E0A0E0B1E0E8ECF6E002C00590E1
:100090000D92A63BB107D9F721E0A6EBB1E001C074
:1000A0001D92A23CB207E1F70E946A010C94620320
:1000B0000C9400008AB182608AB98AB18E7F8AB9B5
:1000C0001092C000E1ECF0E080818869808386E0D6
:1000D0008093C20087E690E09093C5008093C400AF
:1000E00008959091C00095FFFCCF8093C6000895BD
:1000F000CF93DF93EC0103C00E94710021968881A9
:100100008111FACFDF91CF910895882324F495B11E
:10011000926095B903C095B19D7F95B986FF04C0E3
:1001200095B1916095B903C095B19E7F95B985FF52
:1001300004C09BB190689BB903C09BB19F779BB9EA
:1001400084FF04C09BB190649BB903C09BB19F7BAB
:100150009BB983FF04C09BB190629BB903C09BB164
:100160009F7D9BB982FF04C09BB190619BB903C086
:100170009BB19F7E9BB981FF04C09BB198609BB9E6
:1001800003C09BB1977F9BB980FF04C08BB1846093
:100190008BB908958BB18B7F8BB908950E945A005B
:1001A00078940895CF92DF92EF92FF920F931F936E
:1001B000CF93DF93FC01EB01890180E38883DA01AF
:1001C0008C93D9018C93E436F105C0F06F01D6947D
:1001D000C794D694C7949601ABE7B4E10E94530349
:1001E0007C01F694E79480E38E0D888324E62E9DAF
:1001F000C0012F9D900D1124E81BF90BEA30F10589
:10020000E8F09F01ADECBCEC0E945303EC01D695E5
:10021000C795D695C795D695C7958C2F805DDA0181
:100220008C93CE01880F991FCC0FDD1FCC0FDD1FE3
:10023000CC0FDD1FC80FD91FEC1BFD0BE05DD801F3
:10024000EC93DF91CF911F910F91FF90EF90DF9092
:10025000CF90089580E20E94710082E40E947100B4
:100260008AE30E94710080E20E94710081E091E0C7
:100270000E9478008DE291E00E94780085E491E090
:100280000E9478000895BC0140E020E030E018C0F2
:1002900050ED590F5A3098F4F901EE0FFF1F220F5D
:1002A000331F220F331F220F331F2E0F3F1F290F23
:1002B000311D205331092F3F310509F048F44F5FBC
:1002C000FB01E40FF11D90819111E2CF822F08957F
:1002D0008FEF0895CF93DF9300D000D000D0CDB73B
:1002E000DEB70E94CE000E945A000E942A018AB105
:1002F0008C6F8AB984B1836084B988B18F7D88B9E5
:100300008BB183708BB985B18C7F85B920E040E0DB
:1003100060E080E50E94E10287B1806287B988B120
:10032000806288B98091BA018823E1F31092BA0102
:100330008091B8018111AFC08091B901813309F07A
:1003400095C088B18F7D88B92FEF85EA9EE0215056
:1003500080409040E1F700C0000083E60E94460321
:100360002FEF89E698E1215080409040E1F700C0EE
:1003700000000E9448038093B70188B1806288B969
:1003800088B18F7D88B92FEF85EA9EE021508040AB
:100390009040E1F700C0000081E60E9446032FEF85
:1003A00089E698E1215080409040E1F700C00000CC
:1003B0000E9448038093B60188B1806288B92FEF0C
:1003C00087E893E1215080409040E1F700C00000B1
:1003D0008091B7019E012D5F3F4FAE014E5F5F4F91
:1003E000BE016F5F7F4F90E00E94D2008091B60106
:1003F0009E012A5F3F4FAE014B5F5F4FBE016C5FB6
:100400007F4F90E00E94D20087E591E00E94780043
:100410008FE691E00E94780089810E9471008A81B4
:100420000E9471008B810E9471008AE791E00E9416
:10043000780084E791E00E9478008C810E9471002E
:100440008D810E9471008E810E94710089E791E088
:100450000E9478002FEF84E39CE021508040904080
:10046000E1F700C000000E942A015CCF8091B90131
:10047000823351F48CE791E00E94780081E0809310
:10048000B801109200014ECF8EE891E00E947800F2
:100490000E942A0147CF8091B801813009F042CFF4
:1004A0008CEB91E00E944301082F0E94850084EAB2
:1004B00091E00E94780089E2089F812D11248295A5
:1004C0008F70805D0E9471008DEC089F112D1124AA
:1004D000169516951695189F812D1124869586954B
:1004E0008695880F982F990F990F890F212F281B18
:1004F000822F805D0E947100110F812F880F880F5D
:10050000180F802F811B805D0E9471008AE791E0A7
:100510000E94780088B18F7D88B9802F0E944603A1
:100520000E94480388B1806288B91092B8010E9485
:100530002A01F8CE1F920F920FB60F9211248F93BB
:100540009F93EF93FF938091C6008D3011F08A3016
:1005500079F48091B801813059F5E091BB01F0E068
:10056000E454FE4F10821092BB018093BA0120C068
:100570009091B801911106C08093B90181E08093F8
:10058000BA0116C09091B801913091F490ED980F96
:100590009A3070F49091BB01933050F4E091BB011C
:1005A00091E09E0F9093BB01F0E0E454FE4F8083F6
:1005B000FF91EF919F918F910F900FBE0F901F9021
:1005C0001895E82F84FF52C084B18C6284B984B13D
:1005D0008F7E84B98CB580618CBDE7708E2F90E0E2
:1005E0008730910508F04BC0FC01EC5CFF4F0C9488
:1005F0004D038CB58C7F8CBD8DB581608DBD3FC0AA
:100600008CB58C7F8CBD8DB58E7F8DBD38C08CB583
:1006100081608CBD8CB58D7F8CBD8DB581608DBDAD
:100620002EC08CB58D7F8CBD8CB581608CBD8DB599
:100630008E7F8DBD24C08CB582608CBD8CB58E7FC5
:100640008CBD8DB581608DBD1AC08CB582608CBDAE
:100650008CB58E7F8CBD8DB58E7F8DBD10C08CB559
:1006600083608CBD8DB58E7F8DBD09C084B18061E6
:1006700084B984B1837D84B98CB58F7E8CBD8CB5F3
:10068000462B242B282B20642CBD08958EBD089565
:100690000DB407FEFDCF8EB50895EE0FFF1F059038
:1006A000F491E02D0994A29FB001B39FC001A39FD4
:1006B000700D811D1124911DB29F700D811D11249B
:0806C000911D0895F894FFCF8D
:1006C800010A20496E677265736520656C206EFAB1
:1006D8006D65726F207061726120656A65637574FB
:1006E8006172206C61206F706369F36E000A2031BB
:1006F8002E204C65657220706F74656E6369F36DAA
:100708006574726F000A20322E20456E7669617218
:10071800204173636969000A56616C6F7220706FBB
:1007280074656E63696F6D6574726F733A0A00530E
:10073800313A200053323A20000A0A000A20496E52
:100748006772657365206EFA6D65726F0A000A201C
:10075800456E7472616461206E6F2076E16C696425
:1007680061200A000A56616C6F72207265636962C3
:0607780069646F3A2000E5
:00000001FF
