:100000000C9434000C9451000C9451000C94510049
:100010000C9451000C9451000C9451000C9451001C
:100020000C9451000C9451000C9451000C9451000C
:100030000C9451000C9451000C9451000C945100FC
:100040000C9451000C9451000C9483030C945100B7
:100050000C9451000C943B030C9451000C945100EF
:100060000C9451000C94510011241FBECFEFD8E026
:10007000DEBFCDBF11E0A0E0B1E0EAE9F7E002C0E9
:1000800005900D92A839B107D9F721E0A8E9B1E0B0
:1000900001C01D92AC3AB207E1F70E9435020C9400
:1000A000CB030C940000ECE7F0E0108280818064C8
:1000B0008083EAE7F0E0108280818760808380811E
:1000C0008860808380818068808380818064808371
:1000D00008958AB182608AB98AB18E7F8AB91092F6
:1000E000C000E1ECF0E080818869808386E0809345
:1000F000C20087E690E09093C5008093C400089505
:1001000080FF04C09BB194609BB903C09BB19B7FEF
:100110009BB981FF04C09BB198609BB903C09BB1A0
:10012000977F9BB982FF04C09BB190619BB903C0CC
:100130009BB19F7E9BB983FF04C09BB190629BB92A
:1001400003C09BB19F7D9BB984FF04C09BB19064A9
:100150009BB903C09BB19F7B9BB985FF04C09BB13A
:1001600090689BB903C09BB19F779BB986FF04C081
:1001700095B1916095B903C095B19E7F95B98823DB
:1001800024F485B1826085B9089585B18D7F85B9E4
:10019000089595B1977F95B995B19B7F95B90E94C8
:1001A00080008FE79EE30197F1F700C0000085B162
:1001B000846085B98FE79EE30197F1F700C00000E6
:1001C00085B18B7F85B98FE79EE30197F1F700C07A
:1001D000000008958AB18C6F8AB984B18F6084B9A8
:1001E00085B1807F85B98FE19EE40197F1F700C06A
:1001F000000080E00E9480009FEF29EF80E0915096
:1002000020408040E1F700C000009FEF29EF80E030
:10021000915020408040E1F700C0000088E30E9438
:10022000C9009FEF29EF80E0915020408040E1F726
:1002300000C000008CE00E94C9009FEF29EF80E021
:10024000915020408040E1F700C0000086E00E940D
:10025000C9009FEF29EF80E0915020408040E1F7F6
:1002600000C0000081E00E94C900089595B1986027
:1002700095B90E94800085B1846085B985E08A9532
:10028000F1F7000085B18B7F85B98FE891E0019788
:10029000F1F700C0000008950F931F93CF93DF93F1
:1002A0008C01C0E0D0E003C00E9436012196F80125
:1002B000EC0FFD1F80818111F7CFDF91CF911F914E
:1002C0000F910895613019F49FE7980F04C06230D0
:1002D00011F49FEB980F892F0E94C9000895F8949C
:1002E0000E9453000E94690083E08093A80110924D
:1002F000A10178940895AF92BF92CF92DF92EF92CE
:10030000FF920F931F93CF93DF93FC016B01790151
:10031000E80180E3DB018C93DA018C93D9018C93A3
:100320008883E83EB3E0FB0710F15F01B694A79421
:10033000B694A794B694A7949501A5ECB0E20E9458
:10034000BC038C01129502950F7001271F700127C5
:1003500080E3800FD6018C9328EE33E0029FC0012A
:10036000039F900D129F900D1124E81BF90BE436AA
:10037000F105C8F06F01D694C794D694C79496013E
:10038000ABE7B4E10E94BC038C011695079580E3AE
:10039000800FDA018C9324E6209FC001219F900DED
:1003A0001124E81BF90BEA30F105E8F09F01ADECF0
:1003B000BCEC0E94BC03AC015695479556954795F9
:1003C0005695479580E3840FD7018C93CA01880F17
:1003D000991F440F551F440F551F440F551F480FB9
:1003E000591FE41BF50BE05DE883DF91CF911F916E
:1003F0000F91FF90EF90DF90CF90BF90AF90089556
:100400009091C00095FFFCCF8093C6000895CF93D4
:10041000DF93EC0103C00E940002219688818111C4
:10042000FACFDF91CF91089580E20E94000282E42A
:100430000E9400028AE30E94000280E20E94000201
:1004400080E091E00E9407028CE291E00E940702A6
:1004500084E491E00E94070288E491E00E94070290
:1004600086E991E00E9407020895CF93DF93CDB70C
:10047000DEB72C970FB6F894DEBF0FBECDBF0E943B
:100480006F010E9453000E94EA000E941402209112
:100490009F013091A001A4EFB1E00E94BC032FEFB7
:1004A00033E040E050E00E949A03DA01C9018E0176
:1004B0000C5F1F4F9E012D5F3F4FAE014E5F5F4FA0
:1004C000BE016F5F7F4F0E947B010C5F1F4F9E013B
:1004D000295F3F4FAE014A5F5F4FBE016B5F7F4FA9
:1004E0008091990190919A010E947B018091A101D4
:1004F0000C5F1F4F9E01255F3F4FAE01465F5F4F70
:10050000BE01675F7F4F90E00E947B0161E081E068
:100510000E9462018CE491E00E944C0161E087E05E
:100520000E94620180E591E00E944C0161E08CE054
:100530000E94620184E591E00E944C0162E081E04A
:100540000E9462018A810E9436018EE20E94360179
:100550008B810E9436018C810E94360186E50E94C3
:10056000360162E087E00E9462018D810E943601BF
:100570008E810E9436018F810E94360188850E94FB
:10058000360162E08CE00E94620189850E9436019A
:100590008A850E9436018B850E9436018C850E94D7
:1005A00036018091AA01882309F471CF1092AA0123
:1005B00080919B01813309F043C088E591E00E945E
:1005C000070280E791E00E9407028A810E940002F0
:1005D0008EE20E9400028B810E9400028C810E94A8
:1005E000000285E791E00E94070289E791E00E94FE
:1005F00007028D810E9400028E810E9400028F817D
:100600000E94000288850E94000286E991E00E9413
:1006100007028EE791E00E94070289850E9400028E
:100620008A850E9400028B850E9400028C850E94B0
:10063000000285E991E00E9407020E94140227CF80
:100640008B3241F48091A1018F5F8093A1010E94C0
:1006500014021DCF8D3241F48091A101815080930D
:10066000A1010E94140213CF83E891E00E940702C7
:100670000E9414020CCF1F920F920FB60F921124FA
:100680002F938F939F93EF93FF938091A8018330D3
:10069000B1F4209178008091790090E0982F88271C
:1006A000822B9093A00180939F0184E08093A80106
:1006B000ECE7F0E08081807F8460808315C020912A
:1006C00078008091790090E0982F8827822B909372
:1006D0009A018093990183E08093A801ECE7F0E010
:1006E0008081807F83608083EAE7F0E0808180649E
:1006F0008083FF91EF919F918F912F910F900FBE6B
:100700000F901F9018951F920F920FB60F92112401
:100710008F938091C6008A3039F08D3029F0809314
:100720009B0181E08093AA018F910F900FBE0F90E3
:100730001F901895A1E21A2EAA1BBB1BFD010DC02C
:10074000AA1FBB1FEE1FFF1FA217B307E407F50781
:1007500020F0A21BB30BE40BF50B661F771F881F5D
:10076000991F1A9469F760957095809590959B01F3
:10077000AC01BD01CF010895A29FB001B39FC0019C
:10078000A39F700D811D1124911DB29F700D811DBD
:0A0790001124911D0895F894FFCF85
:10079A000A20496E677265736520656C206EFA6D72
:1007AA0065726F207061726120656A656375746134
:1007BA0072206C61206F706369F36E000A20312E1B
:1007CA00204C65657220706F74656E6369F36D65A0
:1007DA0074726F000A202B000A202D0053313A0050
:1007EA0053323A0053333A000A56616C6F722070E2
:1007FA006F74656E63696F6D6574726F733A0A0020
:10080A0053313A200020560A0053323A200053331B
:10081A003A20000A456E7472616461206E6F207618
:08082A00616C6964610A0A00B7
:00000001FF
