S01100004C6162325F446967322E737265632D
S11300000C9434000C9451000C9451000C94510045
S11300100C9451000C9451000C9451000C94510018
S11300200C9451000C9451000C9451000C94510008
S11300300C9451000C9451000C9451000C945100F8
S11300400C9451000C9451000C947F030C945100B7
S11300500C9451000C9437030C9451000C945100EF
S11300600C9451000C94510011241FBECFEFD8E022
S1130070DEBFCDBF11E0A0E0B1E0E2E9F7E002C0ED
S113008005900D92AC3BB107D9F721E0ACEBB1E0A0
S113009001C01D92A03DB207E1F70E9431020C9409
S11300A0C7030C940000ECE7F0E0108280818064C8
S11300B08083EAE7F0E0108280818760808380811A
S11300C0886080838081806880838081806480836D
S11300D008958AB182608AB98AB18E7F8AB91092F2
S11300E0C000E1ECF0E080818869808386E0809341
S11300F0C20087E690E09093C5008093C400089501
S113010080FF04C09BB194609BB903C09BB19B7FEB
S11301109BB981FF04C09BB198609BB903C09BB19C
S1130120977F9BB982FF04C09BB190619BB903C0C8
S11301309BB19F7E9BB983FF04C09BB190629BB926
S113014003C09BB19F7D9BB984FF04C09BB19064A5
S11301509BB903C09BB19F7B9BB985FF04C09BB136
S113016090689BB903C09BB19F779BB986FF04C07D
S113017095B1916095B903C095B19E7F95B98823D7
S113018024F485B1826085B9089585B18D7F85B9E0
S1130190089595B1977F95B995B19B7F95B90E94C4
S11301A080008FE79EE30197F1F700C0000085B15E
S11301B0846085B98FE79EE30197F1F700C00000E2
S11301C085B18B7F85B98FE79EE30197F1F700C076
S11301D0000008958AB18C6F8AB984B18F6084B9A4
S11301E085B1807F85B98FE19EE40197F1F700C066
S11301F0000080E00E9480009FEF29EF80E0915092
S113020020408040E1F700C000009FEF29EF80E02C
S1130210915020408040E1F700C0000088E30E9434
S1130220C9009FEF29EF80E0915020408040E1F722
S113023000C000008CE00E94C9009FEF29EF80E01D
S1130240915020408040E1F700C0000086E00E9409
S1130250C9009FEF29EF80E0915020408040E1F7F2
S113026000C0000081E00E94C900089595B1986023
S113027095B90E94800085B1846085B985E08A952E
S1130280F1F7000085B18B7F85B98FE891E0019784
S1130290F1F700C0000008950F931F93CF93DF93ED
S11302A08C01C0E0D0E003C00E9436012196F80121
S11302B0EC0FFD1F80818111F7CFDF91CF911F914A
S11302C00F910895613019F49FE7980F04C06230CC
S11302D011F49FEB980F892F0E94C9000895F89498
S11302E00E9453000E94690083E08093CC01109225
S11302F0C50178940895AF92BF92CF92DF92EF92A6
S1130300FF920F931F93CF93DF93FC016B0179014D
S1130310E80180E3DB018C93DA018C93D9018C939F
S11303208883E83EB3E0FB0710F15F01B694A7941D
S1130330B694A794B694A7949501A5ECB0E20E9454
S1130340B8038C01129502950F7001271F700127C5
S113035080E3800FD6018C9328EE33E0029FC00126
S1130360039F900D129F900D1124E81BF90BE436A6
S1130370F105C8F06F01D694C794D694C79496013A
S1130380ABE7B4E10E94B8038C011695079580E3AE
S1130390800FDA018C9324E6209FC001219F900DE9
S11303A01124E81BF90BEA30F105E8F09F01ADECEC
S11303B0BCEC0E94B803AC015695479556954795F9
S11303C05695479580E3840FD7018C93CA01880F13
S11303D0991F440F551F440F551F440F551F480FB5
S11303E0591FE41BF50BE05DE883DF91CF911F916A
S11303F00F91FF90EF90DF90CF90BF90AF90089552
S11304009091C00095FFFCCF8093C6000895CF93D0
S1130410DF93EC0103C00E940002219688818111C0
S1130420FACFDF91CF91089580E20E94000282E426
S11304300E9400028AE30E94000280E20E940002FD
S113044080E091E00E9407028FE491E00E9407029D
S113045088E691E00E9407028CE691E00E94070280
S11304600895CF93DF93CDB7DEB72C970FB6F894EA
S1130470DEBF0FBECDBF0E946F010E9453000E94D9
S1130480EA000E9414022091C3013091C401A4EF38
S1130490B1E00E94B8032FEF33E040E050E00E9447
S11304A09603DA01C9018E010C5F1F4F9E012D5F77
S11304B03F4FAE014E5F5F4FBE016F5F7F4F0E94A3
S11304C07B010C5F1F4F9E01295F3F4FAE014A5FC6
S11304D05F4FBE016B5F7F4F8091BD019091BE0164
S11304E00E947B018091C5010C5F1F4F9E01255F17
S11304F03F4FAE01465F5F4FBE01675F7F4F90E0A5
S11305000E947B0161E081E00E94620180E791E04A
S11305100E944C0161E087E00E94620184E791E05F
S11305200E944C0161E08CE00E94620188E791E046
S11305300E944C0162E081E00E9462018A810E9473
S113054036018EE20E9436018B810E9436018C8135
S11305500E94360186E50E94360162E087E00E942F
S113056062018D810E9436018E810E9436018F8145
S11305700E94360188850E94360162E08CE00E9468
S1130580620189850E9436018A850E9436018B8525
S11305900E9436018C850E9436018091CE01882309
S11305A009F471CF1092CE018091BF01813309F01B
S11305B043C08CE791E00E94070284E991E00E9425
S11305C007028A810E9400028EE20E9400028B814F
S11305D00E9400028C810E94000289E991E00E943D
S11305E007028DE991E00E9407028D810E940002BA
S11305F08E810E9400028F810E94000288850E94E1
S113060000028AEB91E00E94070282EA91E00E94D4
S1130610070289850E9400028A850E9400028B8558
S11306200E9400028C850E94000289EB91E00E94E6
S113063007020E94140227CF8B3241F48091C50136
S11306408F5F8093C5010E9414021DCF8D3241F447
S11306508091C50181508093C5010E94140213CF7B
S113066087EA91E00E9407020E9414020CCF1F92B5
S11306700F920FB60F9211242F938F939F93EF93A2
S1130680FF938091CC018330B1F420917800809164
S1130690790090E0982F8827822B9093C40180934F
S11306A0C30184E08093CC01ECE7F0E08081807F9B
S11306B08460808315C0209178008091790090E057
S11306C0982F8827822B9093BE018093BD0183E0ED
S11306D08093CC01ECE7F0E08081807F83608083AD
S11306E0EAE7F0E0808180648083FF91EF919F913D
S11306F08F912F910F900FBE0F901F9018951F92FE
S11307000F920FB60F9211248F938091C6008A30F6
S113071039F08D3029F08093BF0181E08093CE01C0
S11307208F910F900FBE0F901F901895A1E21A2E73
S1130730AA1BBB1BFD010DC0AA1FBB1FEE1FFF1F81
S1130740A217B307E407F50720F0A21BB30BE40BD1
S1130750F50B661F771F881F991F1A9469F7609518
S11307607095809590959B01AC01BD01CF010895D2
S1130770A29FB001B39FC001A39F700D811D1124DE
S1130780911DB29F700D811D1124911D0895F8943F
S1050790FFCF95
S11307920A2050726573696F6E6520312070617230
S11307A261206C656572206C6F7320706F74656E66
S11307B26369F36D6574726F73206F202B2F2D2084
S11307C2706172612061756D656E746172206F2053
S11307D264656372656D656E746172205333000AD9
S11307E220312E204C65657220706F74656E6369CA
S11307F2F36D6574726F73000A092B000A092D00E8
S113080253313A0053323A0053333A000A56616C78
S11308126F7220706F74656E63696F6D6574726F49
S1130822733A0A0053313A200020560A0053323AEE
S1130832200053333A20000A456E747261646120C9
S10F08426E6F2076616C6964610A0A0024
S9030000FC
