:100000000C944B000C9468000C9468000C946800ED
:100010000C9468000C9468000C9468000C946800C0
:100020000C9468000C9468000C9468000C946800B0
:100030000C9468000C9468000C9468000C946800A0
:100040000C9468000C9468000C9468000C94680090
:100050000C9468000C9468000C9468000C94680080
:100060000C9468000C946800084AD73B3BCE016EA4
:1000700084BCBFFDC12F3D6C74319ABD56833DDAFF
:100080003D00C77F11BED9E4BB4C3E916BAAAABE0E
:10009000000000803F0011241FBECFEFD8E0DEBF7C
:1000A000CDBF11E0A0E0B1E0E4E8F0E102C00590CE
:1000B0000D92A238B107D9F721E0A2E8B1E001C062
:1000C0001D92A438B207E1F70E94AF040C944008D7
:1000D0000C9400000F931F93CF938B019C01C42FAE
:1000E00087B18F7C87B9443079F018F4413031F012
:1000F00023C0403191F04034C9F01EC0E9EBF0E07C
:1001000080818C7F80831EC0E9EBF0E080818D7F51
:10011000808380818160808315C0E9EBF0E080817D
:100120008E7F80838081826080830CC0E9EBF0E069
:1001300080818360808306C0E9EBF0E080818C7F62
:100140008083C1E060E074E284EF90E0A90198014F
:100150000E94FB07CA01B901605171098109910927
:100160004C2F50E09A01220F331F032E000C440B3A
:10017000550B0E94FB072093B800ECEBF0E0808168
:1001800084608083CF911F910F91089584EA8093BA
:10019000BC008091BC008823E4F79091B900987F5F
:1001A00081E0983009F080E0089584EA8093BC00F3
:1001B0008091BC008823E4F79091B900987F81E09A
:1001C000903109F080E0089584E98093BC0080912B
:1001D000BC0084FDFCCF08958093BB0084E880932D
:1001E000BC008091BC008823E4F78091B900887F2F
:1001F000883121F0883219F481E0089581E0089572
:10020000FC01662321F084EC8093BC0003C084E8E9
:100210008093BC009091BC009923E4F79091B900C1
:10022000987F662311F0903549F4611102C098352A
:1002300039F48091BB00808381E0089580E00895C7
:1002400080E008958AB182608AB98AB18E7F8AB9C6
:100250001092C000E1ECF0E080818869808386E044
:100260008093C20087E690E09093C5008093C4001D
:10027000089580FF04C09BB194609BB903C09BB1FB
:100280009B7F9BB981FF04C09BB198609BB903C061
:100290009BB1977F9BB982FF04C09BB190619BB9D2
:1002A00003C09BB19F7E9BB983FF04C09BB190624A
:1002B0009BB903C09BB19F7D9BB984FF04C09BB1D8
:1002C00090649BB903C09BB19F7B9BB985FF04C021
:1002D0009BB190689BB903C09BB19F779BB986FF88
:1002E00004C095B1916095B903C095B19E7F95B951
:1002F000882324F485B1826085B9089585B18D7F06
:1003000085B9089595B1977F95B995B19B7F95B9BA
:100310000E9439018FE79EE30197F1F700C00000CA
:1003200085B1846085B98FE79EE30197F1F700C03E
:10033000000085B18B7F85B98FE79EE30197F1F7C8
:1003400000C0000008958AB18C6F8AB984B18F60B3
:1003500084B985B1807F85B98FE19EE40197F1F77B
:1003600000C0000080E00E9439019FEF29EF80E08B
:10037000915020408040E1F700C000009FEF29EF3E
:1003800080E0915020408040E1F700C0000088E309
:100390000E9482019FEF29EF80E091502040804031
:1003A000E1F700C000008CE00E9482019FEF29EF7E
:1003B00080E0915020408040E1F700C0000086E0DE
:1003C0000E9482019FEF29EF80E091502040804001
:1003D000E1F700C0000081E00E948201089595B11C
:1003E000986095B90E94390185B1846085B985E02E
:1003F0008A95F1F7000085B18B7F85B98FE891E090
:100400000197F1F700C0000008950F931F93CF9359
:10041000DF938C01C0E0D0E003C00E94EF01219681
:10042000F801EC0FFD1F80818111F7CFDF91CF9193
:100430001F910F910895613019F49FE7980F04C040
:10044000623011F49FEB980F892F0E94820108956A
:100450009091C00095FFFCCF8093C6000895CF9384
:10046000DF93EC0103C00E9428022196888181114C
:10047000FACFDF91CF910895CF92DF92EF92FF9262
:100480000F931F93CF93DF93FC01EB01890180E36E
:100490008883DA018C93D9018C93E436F105C0F09E
:1004A0006F01D694C794D694C7949601ABE7B4E194
:1004B0000E941D087C01F694E79480E38E0D8883EA
:1004C00024E62E9DC0012F9D900D1124E81BF90BF1
:1004D000EA30F105E8F09F01ADECBCEC0E941D088C
:1004E000EC01D695C795D695C795D695C7958C2F0F
:1004F000805DDA018C93CE01880F991FCC0FDD1F30
:10050000CC0FDD1FCC0FDD1FC80FD91FEC1BFD0B5F
:10051000E05DD801EC93DF91CF911F910F91FF9097
:10052000EF90DF90CF9008950E94C6008823D9F104
:1005300080E80E94EC00882399F180918301853145
:1005400020F48EE40E94EC0003C086E40E94EC00DC
:1005500080918201813061F462E08DE00E941B0293
:1005600080E091E00E94050288E50E94EC0018C03E
:10057000823061F462E08DE00E941B0282E091E033
:100580000E94050284E40E94EC000AC0833041F41A
:1005900062E08DE00E941B0284E091E00E9405026F
:1005A0000E94E40008950E94E40086E091E00E9429
:1005B0002F0208950E94C60080E80E94EC000E946D
:1005C000D50081E80E94EC0060E083E891E00E94A1
:1005D00000010E94E4000E94C60080E60E94EC0038
:1005E0000E94D50081E60E94EC0060E082E891E084
:1005F0000E9400010E94E4000E94940208950F935B
:100600001F93CF93DF93182F092FC62FD72F0E9448
:10061000C60080E60E94EC00882379F0802F0E94BB
:10062000EC00812F0E94EC008D2F0E94EC008C2F9B
:100630000E94EC000E94E40006C00E94E40083E2F5
:1006400091E00E942F02DF91CF911F910F910895A9
:100650000E94C60080ED0E94EC008BE60E94EC0038
:1006600080E00E94EC000E94E4008FE39CE9019787
:10067000F1F700C0000008950E94A3010E9422012A
:100680000E94280384B1806284B985B18F7D85B9C9
:1006900041E060EA76E881E090E00E946A007894A8
:1006A0000895EF92FF921F93CF93DF93CDB7DEB7FC
:1006B00027970FB6F894DEBF0FBECDBF7C01009721
:1006C00021F480E30E9428022AC0992334F48DE2A9
:1006D0000E942802F194E194F10810E010C0C701D3
:1006E0006AE070E00E94E707E1E0F0E0EC0FFD1F38
:1006F000E10FF11D805D8083E62EF72E1F5F1E1433
:100700001F046CF30AC01150E1E0F0E0EC0FFD1F94
:10071000E10FF11D80810E9428021111F4CF27966C
:100720000FB6F894DEBF0FBECDBFDF91CF911F9102
:10073000FF90EF9008954F925F926F927F928F9209
:100740009F92AF92BF92CF92DF92EF92FF920F9360
:100750001F93CF93DF9300D0CDB7DEB70E94C600C2
:1007600080ED0E94EC008BE30E94EC000E94D5001B
:1007700081ED0E94EC0061E0CE0101960E94000133
:1007800061E0CE0102960E940001098110E0102F65
:1007900000278A81082B61E0CE0101960E940001AA
:1007A00061E0CE0102960E940001E980F12CFE2C4E
:1007B000EE248A81E82A61E0CE0101960E940001C0
:1007C00060E0CE0102960E940001698170E0762F00
:1007D00066278A816B01C82A0E94E400B601DD0CFD
:1007E000880B990B0E9421064B015C01B701FF0C9D
:1007F000880B990B0E942106A50194010E94170500
:100800002BE13FE245E652E40E9405076B017C01C3
:1008100066277727601B710B072E000C880B990B3E
:100820000E942106A50194010E9417052BE13FE2D9
:1008300045E652E40E9405074B015C0180E491E02B
:100840000E942F02C701B6010E94E9052B013C015D
:10085000CB010E94510320E030E040EF51ECC70192
:10086000B6010E94760518164CF062E085E00E9401
:100870001B028EE491E00E9405021BC020E030E0E4
:1008800040EF51E4C701B6010E94F80688234CF0FE
:1008900062E085E00E941B0281E591E00E94050272
:1008A00008C062E085E00E941B028DE591E00E9495
:1008B000050220E030E044E352ECC501B4010E949F
:1008C000760518164CF062E089E00E941B0284E570
:1008D00091E00E9405021BC020E030E044E352E4B6
:1008E000C501B4010E94F80688234CF062E089E05B
:1008F0000E941B0288E591E00E94050208C062E0A8
:1009000089E00E941B028CE591E00E94050280E6CE
:1009100091E00E942F02C501B4010E94E9056B011C
:100920007C01CB010E9451038BE691E00E942F02D3
:10093000B601C2010E94FF020F900F90DF91CF918C
:100940001F910F91FF90EF90DF90CF90BF90AF90ED
:100950009F908F907F906F905F904F900895CF936E
:10096000DF9300D01F92CDB7DEB70E943C030E94F8
:100970009B030E94DA02809183019E012D5F3F4F0D
:10098000AE014E5F5F4FBE016F5F7F4F90E00E94F0
:100990003C0261E081E00E941B0282E791E00E943C
:1009A000050261E085E00E941B0286E791E00E945B
:1009B000050261E089E00E941B028AE791E00E9443
:1009C000050261E08DE00E941B028EE791E00E942B
:1009D000050262E081E00E941B0289810E94EF0112
:1009E0008A810E94EF018B810E94EF0189810E9420
:1009F00028028A810E9428028B810E94280295B1D8
:100A000080E2892785B9B3CF0E94B00660F080E804
:100A100091E009F49EEF0E94B70628F040E851E00B
:100A200071F45EEF0CC00C9486060C94F106E92F6D
:100A3000E0780E94CF0640F3092E052AB1F326176D
:100A400037074807590738F00E2E07F8E02569F0F8
:100A5000E025E0640AC0EF6307F8009407FADB01C1
:100A6000B9019D01DC01CA01AD01EF930E948E0521
:100A70000E94BE060E9447055F91552339F02BED79
:100A80003FE049E450FD49EC0C9477070895DF936B
:100A9000DD27B92FBF7740E85FE316161706480732
:100AA0005B0718F4D92F0E94FD069F938F937F93C5
:100AB0006F930E947207E8E6F0E00E9489060E94A8
:100AC000BE062F913F914F915F910E941807DD2341
:100AD00051F09058A2EA2AED3FE049EC5FE3D0786C
:100AE0005D270E948E07DF910C94BE060E945C0673
:100AF00008F481E008950E94B70658F00E94B006FD
:100B000040F029F45F3F29F00C94800651110C94B9
:100B1000F2060C9486060E94CF0668F39923B1F37F
:100B2000552391F3951B550BBB27AA276217730713
:100B3000840738F09F5F5F4F220F331F441FAA1FA7
:100B4000A9F335D00E2E3AF0E0E832D09150504063
:100B5000E695001CCAF72BD0FE2F29D0660F771F11
:100B6000881FBB1F261737074807AB07B0E809F0F7
:100B7000BB0B802DBF01FF2793585F4F3AF09E3F7C
:100B8000510578F00C9480060C94F2065F3FE4F374
:100B9000983ED4F3869577956795B795F7959F5FBF
:100BA000C9F7880F911D9695879597F90895E1E00B
:100BB000660F771F881FBB1F621773078407BA076A
:100BC00020F0621B730B840BBA0BEE1F88F7E095C5
:100BD00008950E94F0056894B1110C94F2060895EE
:100BE0000E94D70688F09F5798F0B92F9927B751E0
:100BF000B0F0E1F0660F771F881F991F1AF0BA95C1
:100C0000C9F714C0B13091F00E94F106B1E0089527
:100C10000C94F106672F782F8827B85F39F0B93F19
:100C2000CCF3869577956795B395D9F73EF4909573
:100C30008095709561957F4F8F4F9F4F0895E894F1
:100C400009C097FB3EF490958095709561957F4F14
:100C50008F4F9F4F9923A9F0F92F96E9BB279395C2
:100C6000F695879577956795B795F111F8CFFAF4D2
:100C7000BB0F11F460FF1BC06F5F7F4F8F4F9F4F03
:100C800016C0882311F096E911C0772321F09EE861
:100C9000872F762F05C0662371F096E8862F70E0C7
:100CA00060E02AF09A95660F771F881FDAF7880FA1
:100CB0009695879597F90895990F0008550FAA0BF7
:100CC000E0E8FEEF16161706E807F907C0F012165F
:100CD0001306E407F50798F0621B730B840B950B62
:100CE00039F40A2661F0232B242B252B21F40895B7
:100CF0000A2609F4A140A6958FEF811D811D089554
:100D000097F99F6780E870E060E008959FEF80ECBE
:100D10000895DF93CF931F930F93FF92EF92DF928B
:100D20007B018C01689406C0DA2EEF010E9418073F
:100D3000FE01E894A5912591359145915591A6F331
:100D4000EF010E948E07FE019701A801DA9469F76E
:100D5000DF90EF90FF900F911F91CF91DF91089559
:100D600000240A941616170618060906089500248A
:100D70000A9412161306140605060895092E039404
:100D8000000C11F4882352F0BB0F40F4BF2B11F478
:100D900060FF04C06F5F7F4F8F4F9F4F089557FDD7
:100DA0009058440F551F59F05F3F71F04795880FD9
:100DB00097FB991F61F09F3F79F087950895121670
:100DC00013061406551FF2CF4695F1DF08C016161C
:100DD00017061806991FF1CF8695710561050894CD
:100DE0000895E894BB2766277727CB0197F90895E4
:100DF0000E945C0608F48FEF08959B01AC0160E04F
:100E000070E080E89FE30C94E3070E9418070C94BD
:100E1000BE060E94B00638F00E94B70620F0952367
:100E200011F00C9480060C94860611240C94F206A2
:100E30000E94CF0670F3959FC1F3950F50E0551FA8
:100E4000629FF001729FBB27F00DB11D639FAA271F
:100E5000F00DB11DAA1F649F6627B00DA11D661F6E
:100E6000829F2227B00DA11D621F739FB00DA11D8F
:100E7000621F839FA00D611D221F749F3327A00D49
:100E8000611D231F849F600D211D822F762F6A2FE5
:100E900011249F5750409AF0F1F088234AF0EE0F4A
:100EA000FF1FBB1F661F771F881F91505040A9F777
:100EB0009E3F510580F00C9480060C94F2065F3F33
:100EC000E4F3983ED4F3869577956795B795F795B3
:100ED000E7959F5FC1F7FE2B880F911D969587952B
:100EE00097F908959B01AC010C9405075058BB2756
:100EF000AA270E948E070C94BE060E94B00638F006
:100F00000E94B70620F039F49F3F19F426F40C94A0
:100F100086060EF4E095E7FB0C948006E92F0E940C
:100F2000CF0658F3BA17620773078407950720F0B6
:100F300079F4A6F50C94F1060EF4E0950B2EBA2F79
:100F4000A02D0B01B90190010C01CA01A0011124CF
:100F5000FF27591B99F0593F50F4503E68F11A167B
:100F6000F040A22F232F342F4427585FF3CF46950C
:100F700037952795A795F0405395C9F77EF41F162E
:100F8000BA0B620B730B840BBAF09150A1F0FF0FF8
:100F9000BB1F661F771F881FC2F70EC0BA0F621FE4
:100FA000731F841F48F4879577956795B795F795D4
:100FB0009E3F08F0B0CF9395880F08F09927EE0F69
:100FC0009795879508950E948B050C94BE0697FB14
:100FD000072E16F4009407D077FD09D00E942C0844
:100FE00007FC05D03EF4909581959F4F089570952C
:100FF00061957F4F0895A1E21A2EAA1BBB1BFD012C
:101000000DC0AA1FBB1FEE1FFF1FA217B307E407E7
:10101000F50720F0A21BB30BE40BF50B661F771F3F
:10102000881F991F1A9469F760957095809590951F
:101030009B01AC01BD01CF010895A29FB001B39FF8
:10104000C001A39F700D811D1124911DB29F700DD1
:10105000811D1124911D0895AA1BBB1B51E107C0DE
:10106000AA1FBB1FA617B70710F0A61BB70B881F38
:10107000991F5A95A9F780959095BC01CD010895C7
:04108000F894FFCF12
:101084005200560041004572726F723A20657363D4
:10109400616C766F206E6F20726573706F6E64651D
:1010A4000D0A004572726F723A204573636C617663
:1010B4006F206E6F20726573706F6E64650D0A0029
:1010C400414E47554C4F202D3E20583A20002D3E8E
:1010D400003C2D00497A7100446572002D2D2D00CD
:1010E40020646567207C20593A2000206465670DE0
:1010F4000A0044697300416E670047697200436FD8
:021104006C007D
:00000001FF
