:100000000C9434000C9451000C9451000C94510049
:100010000C9451000C9451000C9451000C9451001C
:100020000C9451000C9451000C9451000C9451000C
:100030000C9451000C9451000C9451000C945100FC
:100040000C9451000C9451000C9451000C945100EC
:100050000C9451000C9451000C9451000C945100DC
:100060000C9451000C94510011241FBECFEFD8E026
:10007000DEBFCDBF11E0A0E0B1E0E8EEF5E002C0E8
:1000800005900D92A630B107D9F721E0A6E0B1E0C6
:1000900001C01D92A730B207E1F70E9454020C94F0
:1000A000F2020C9400000F931F93CF938B019C01DD
:1000B000C42F87B18F7C87B9443079F018F4413070
:1000C00031F023C0403191F04034C9F01EC0E9EB5B
:1000D000F0E080818C7F80831EC0E9EBF0E08081BE
:1000E0008D7F808380818160808315C0E9EBF0E0A3
:1000F00080818E7F80838081826080830CC0E9EB69
:10010000F0E080818360808306C0E9EBF0E08081CD
:100110008C7F8083C1E060E074E284EF90E0A9010D
:1001200098010E94C102CA01B90160517109810997
:1001300091094C2F50E09A01220F331F032E000C1F
:10014000440B550B0E94C1022093B800ECEBF0E089
:10015000808184608083CF911F910F91089584EAFC
:100160008093BC008091BC008823E4F79091B90093
:10017000987F81E0983009F080E0089584EA8093C8
:10018000BC008091BC008823E4F79091B900987F6F
:1001900081E0903109F080E0089584E98093BC000B
:1001A0008091BC0084FDFCCF08958093BB0084E85F
:1001B0008093BC008091BC008823E4F78091B90053
:1001C000887F883121F0883219F481E0089581E038
:1001D0000895FC01662321F084EC8093BC0003C0E9
:1001E00084E88093BC009091BC009923E4F790913F
:1001F000B900987F662311F0903549F4611102C06F
:10020000983539F48091BB00808381E0089580E0C7
:10021000089580E0089580FF04C09BB194609BB96D
:1002200003C09BB19B7F9BB981FF04C09BB19860C9
:100230009BB903C09BB1977F9BB982FF04C09BB160
:1002400090619BB903C09BB19F7E9BB983FF04C0A3
:100250009BB190629BB903C09BB19F7D9BB984FF0A
:1002600004C09BB190649BB903C09BB19F7B9BB9B9
:1002700085FF04C09BB190689BB903C09BB19F7779
:100280009BB986FF04C095B1916095B903C095B143
:100290009E7F95B9882324F485B1826085B908953D
:1002A00085B18D7F85B9089595B1977F95B995B141
:1002B0009B7F95B90E940B018FE79EE30197F1F7B1
:1002C00000C0000085B1846085B98FE79EE3019787
:1002D000F1F700C0000085B18B7F85B98FE79EE301
:1002E0000197F1F700C0000008958AB18C6F8AB9B8
:1002F00084B18F6084B985B1807F85B98FE19EE438
:100300000197F1F700C0000080E00E940B019FEF11
:1003100029EF80E0915020408040E1F700C00000CC
:100320009FEF29EF80E0915020408040E1F700C02E
:10033000000088E30E9454019FEF29EF80E0915074
:1003400020408040E1F700C000008CE00E94540192
:100350009FEF29EF80E0915020408040E1F700C0FE
:10036000000086E00E9454019FEF29EF80E0915049
:1003700020408040E1F700C0000081E00E9454016D
:10038000089595B1986095B90E940B0185B184607C
:1003900085B985E08A95F1F7000085B18B7F85B935
:1003A0008FE891E00197F1F700C0000008950F93E6
:1003B0001F93CF93DF938C01C0E0D0E003C00E9475
:1003C000C1012196F801EC0FFD1F80818111F7CF4B
:1003D000DF91CF911F910F910895613019F49FE73C
:1003E000980F04C0623011F49FEB980F892F0E9480
:1003F0005401089578940895CF92DF92EF92FF927E
:100400000F931F93CF93DF93FC01EB01890180E3EE
:100410008883DA018C93D9018C93E436F105C0F01E
:100420006F01D694C794D694C7949601ABE7B4E114
:100430000E94E3027C01F694E79480E38E0D8883AA
:1004400024E62E9DC0012F9D900D1124E81BF90B71
:10045000EA30F105E8F09F01ADECBCEC0E94E3024C
:10046000EC01D695C795D695C795D695C7958C2F8F
:10047000805DDA018C93CE01880F991FCC0FDD1FB0
:10048000CC0FDD1FCC0FDD1FC80FD91FEC1BFD0BE0
:10049000E05DD801EC93DF91CF911F910F91FF9018
:1004A000EF90DF90CF900895CF93DF9300D01F920D
:1004B000CDB7DEB70E94FA010E94750184B1806257
:1004C00084B985B18F7D85B941E060EA76E881E045
:1004D00090E00E94530085B1806285B90E94AF0010
:1004E000882309F448C080E60E94D500811103C02A
:1004F0000E94CD0040C082E50E94D5000E94BE004F
:10050000811103C00E94CD0036C081E60E94D50053
:10051000811103C00E94CD002EC060E086E091E012
:100520000E94E9000E94CD0085B18F7D85B9809140
:1005300006019E012D5F3F4FAE014E5F5F4FBE0132
:100540006F5F7F4F90E00E94FC0161E081E00E94BC
:10055000ED0180E091E00E94D70162E081E00E941D
:10056000ED0189810E94C1018A810E94C1018B81B4
:100570000E94C101B0CF0F900F900F90DF91CF91EB
:100580000895A1E21A2EAA1BBB1BFD010DC0AA1FD4
:10059000BB1FEE1FFF1FA217B307E407F50720F0EC
:1005A000A21BB30BE40BF50B661F771F881F991F67
:1005B0001A9469F760957095809590959B01AC01B0
:1005C000BD01CF010895A29FB001B39FC001A39FB9
:1005D000700D811D1124911DB29F700D811D11247C
:0805E000911D0895F894FFCF6E
:0605E8004469733A0000B3
:00000001FF
