:100000000C9434000C9451000C9451000C94510148
:100010000C9451000C9451000C9451000C9451001C
:100020000C9451000C9451000C9451000C9451000C
:100030000C9451000C9451000C9451000C945100FC
:100040000C9418010C9451000C9451000C94510024
:100050000C9451000C9451000C9451000C945100DC
:100060000C9451000C94510011241FBECFEFD8E026
:10007000DEBFCDBF11E0A0E0B1E0E2E0F3E002C0FE
:1000800005900D92A031B107D9F721E0A0E1B1E0D0
:1000900001C01D92A831B207E1F70E949F000C94A5
:1000A0007F010C9400008FEF8AB91BB8089581314D
:1000B00030F4E82FF0E0E050FF4F80818BB90895D5
:1000C00014BC85B5856085BD86E886BD81E08093DA
:1000D0006E000895F894E1E6F0E080E8808386E021
:1000E00080830E9453008FEF87B918B887B187616A
:1000F00087B988B1887E88B984B1886184B985B1AF
:10010000877E85B984B1887F84B985B1876085B9D8
:10011000E8E6F0E0808181608083EBE6F0E08081BA
:10012000876080831092C10085E080931701109250
:100130001401109210010E946000789408950E94AA
:100140006A0080911601813051F488B1807F88B9AE
:1001500088B18F7C88B985B1877E85B9F2CF8091CF
:1001600015018823E9F0809111018823C9F01092CC
:10017000150180911401811104C081E08093140164
:1001800003C0880F8093140180911401893040F0DE
:100190008FE08093140181E00E94570010921101BA
:1001A00088B1807F90911401892B88B980911201C8
:1001B000882339F280911101882319F210921201DB
:1001C000809110018F5F80931001853070F0109244
:1001D000110188B1806388B985B1886185B982E0F1
:1001E0000E94570010921001ACCF88B18F7C88B963
:1001F00085B1877E85B980911001823069F018F44D
:10020000813031F09ECF833059F0843069F099CF3E
:1002100088B1806188B995CF88B1806288B991CF63
:1002200085B1886085B98DCF85B1806185B989CF69
:100230001F920F920FB60F9211242F933F934F935B
:100240005F936F937F938F939F93AF93BF93EF933E
:10025000FF9386E886BD80911601882389F08091FE
:1002600017010E94570080911701882321F08150C7
:100270008093170105C01092160181E0809311014F
:10028000FF91EF91BF91AF919F918F917F916F916E
:100290005F914F913F912F910F900FBE0F901F9044
:1002A00018951F920F920FB60F9211248F931899E1
:1002B0000EC08091160181110AC080911101811137
:1002C00006C085E08093170181E08093160119999B
:1002D00007C080911101882319F081E080931501F6
:1002E0001A9907C080911101882319F081E0809349
:1002F00012018F910F900FBE0F901F901895F894D8
:02030000FFCF2D
:100302007E186D3D1B37771C7F3F5F7366796747A9
:00000001FF
