:100000000C9434000C9451000C9451000C94570142
:100010000C9451000C9451000C9451000C9451001C
:100020000C9451000C9451000C9451000C9451000C
:100030000C9451000C9451000C9451000C945100FC
:100040000C9415010C9451000C9451000C94510027
:100050000C9451000C9451000C9451000C945100DC
:100060000C9451000C94510011241FBECFEFD8E026
:10007000DEBFCDBF11E0A0E0B1E0EEE2F3E002C0F0
:1000800005900D92A231B107D9F721E0A2E1B1E0CC
:1000900001C01D92AB31B207E1F70E949F000C94A2
:1000A00095010C9400008FEF8AB91BB80895813137
:1000B00030F4E82FF0E0EF5FFE4F80818BB90895B8
:1000C00014BC85B5856085BD86E886BD81E08093DA
:1000D0006E000895F894E1E6F0E080E8808386E021
:1000E00080830E9453008FEF87B918B887B187616A
:1000F00087B988B1887E88B984B1886184B985B1AF
:10010000877E85B984B1887F84B985B1876085B9D8
:10011000E8E6F0E0808181608083EBE6F0E08081BA
:10012000876080831092C10085E080931A0110924D
:100130001701109213010E946000789408950E94A4
:100140006A0080911201813039F488B1807C88B9CD
:1001500085B1877E85B9F5CF809118018823E9F0B4
:10016000809114018823C9F0109218018091170121
:10017000811104C081E08093170103C0880F809330
:10018000170180911701893040F08FE080931701AB
:1001900081E00E9457001092140188B1807F9091F5
:1001A0001701892B88B980911501882351F280911C
:1001B0001401882331F210921501809113018F5F91
:1001C00080931301853070F01092140188B1806320
:1001D00088B985B1886185B982E00E945700109284
:1001E0001301AFCF88B18F7C88B985B1877E85B97F
:1001F00080911301823069F018F4813031F0A1CF81
:10020000833059F0843069F09CCF88B1806188B91F
:1002100098CF88B1806288B994CF85B1886085B95C
:1002200090CF85B1806185B98CCF1F920F920FB6A8
:100230000F9211242F933F934F935F936F937F936C
:100240008F939F93AF93BF93EF93FF9386E886BD01
:10025000809119018823D1F080911A010E945700E2
:1002600081E08093120180911A01882321F081504E
:1002700080931A010BC01092190181E08093140140
:10028000109212011092170110921301FF91EF9139
:10029000BF91AF919F918F917F916F915F914F919E
:1002A0003F912F910F900FBE0F901F9018951F92A6
:1002B0000F920FB60F9211242F938F939F9393B1A8
:1002C00080910001892780FF10C090FD0EC0209111
:1002D000190121110AC020911401211106C025E045
:1002E00020931A0121E02093190181FF09C091FD9B
:1002F00007C020911401222319F021E02093180156
:1003000082FF09C092FD07C080911401882319F073
:1003100081E080931501909300019F918F912F911F
:0E0320000F900FBE0F901F901895F894FFCF0E
:10032E00FF7E186D3D1B37771C7F3F5F73667967C5
:02033E00470076
:00000001FF
