:100000000C9434000C9446000C9446000C9446006A
:100010000C9446000C9446000C9446000C94460048
:100020000C9446000C9446000C9446000C94460038
:100030000C9446000C9446000C9446000C94460028
:100040000C9446000C9446000C9446000C94460018
:100050000C9446000C9484000C9446000C944600CA
:100060000C949D000C94460011241FBECFEFD8E0E5
:10007000DEBFCDBF21E0A0E0B1E001C01D92A23003
:10008000B207E1F70E946E000C94EA000C940000A5
:10009000ECE7F0E010828081806480838081806260
:1000A0008083808183608083EAE7F0E01082808132
:1000B0008360808380818860808380818068808382
:1000C000808180648083089597B19F7C97B9880F61
:1000D0008093BA0085E48093BC00089584B1806267
:1000E00084B985B18F7D85B90E94480080E40E9463
:1000F00064007894809101018235E1F783B18062D8
:1001000083B910920101F6CF1F920F920FB60F9292
:1001100011248F93EF93FF938091790080930001D6
:10012000EAE7F0E0808180648083FF91EF918F9116
:100130000F900FBE0F901F9018951F920F920FB641
:100140000F9211248F93EF93FF938091B9008C7FCE
:10015000803A89F158F48037A1F018F4803689F09C
:100160002EC0803891F0803981F029C0883BA9F0F9
:1001700018F4883A91F023C0803CB9F0883CA9F08B
:100180001EC085EC8093BC001DC08091BB00809395
:10019000010185EC8093BC0015C080910001809323
:1001A000BB0085EC8093BC000DC0ECEBF0E010824E
:1001B00085E4808307C085EC8093BC0003C085EC98
:1001C0008093BC00FF91EF918F910F900FBE0F9025
:0801D0001F901895F894FFCF71
:00000001FF
