S01D00004C61626F7261746F72696F332D4469676974616C322E7372656339
S11300000C943B000C944D000C944D000C944D004A
S11300100C944D000C944D000C944D000C944D0028
S11300200C944D000C944D000C944D000C944D0018
S11300300C944D000C944D000C944D000C944D0008
S11300400C944D000C94E9000C944D000C944D005C
S11300500C944D000C94AD000C944D000C944D0088
S11300600C944D000C944D0027012E0135013F01E5
S1130070490153015D0111241FBECFEFD8E0DEBF5B
S1130080CDBF21E0A0E0B1E001C01D92A630B207CF
S1130090E1F70E947C000C947A010C940000ECE7D8
S11300A0F0E0108280818062808380818764808315
S11300B0EAE7F0E0108280818F6880838081806429
S11300C0808308952BB123702BB925B12C7F25B9DA
S11300D02BB1382F330F330F232B2BB925B1002429
S11300E0880F991F001C880F991F001C892F902DC1
S11300F08370822B85B908950E944F0020E030E080
S113010040E050E060E070E080E490E00E940F0185
S11301108CB580688CBD78948AB18C6F8AB98BB1A8
S113012083708BB984B1836084B985B18C7F85B9C0
S113013080910001813039F48091040190E00E94A3
S11301406200109200012FEF81EE94E02150804074
S11301509040E1F700C00000EBCF1F920F920FB662
S11301600F9211248F939F93EF93FF9380917C00C0
S113017087709091790090930301873069F490918E
S1130180030190930201ECE7F0E010829081906605
S11301909083908196609083863069F48091030106
S11301A080930101ECE7F0E0108280818066808317
S11301B0808187608083EAE7F0E0808180648083C7
S11301C0FF91EF919F918F910F900FBE0F901F9011
S11301D018951F920F920FB60F9211248F938EB51C
S11301E08093050180910501833621F480910201F9
S11301F08EBD0FC080910501813621F480910101EB
S11302008EBD07C0809105018093040181E0809335
S113021000018F910F900FBE0F901F901895E82F3B
S113022084FF52C084B18C6284B984B18F7E84B956
S11302308CB580618CBDE7708E2F90E0873091057E
S113024008F04BC0FC01EC5CFF4F0C9474018CB5BE
S11302508C7F8CBD8DB581608DBD3FC08CB58C7F8E
S11302608CBD8DB58E7F8DBD38C08CB581608CBD45
S11302708CB58D7F8CBD8DB581608DBD2EC08CB548
S11302808D7F8CBD8CB581608CBD8DB58E7F8DBD11
S113029024C08CB582608CBD8CB58E7F8CBD8DB531
S11302A081608DBD1AC08CB582608CBD8CB58E7F8B
S11302B08CBD8DB58E7F8DBD10C08CB583608CBD1B
S11302C08DB58E7F8DBD09C084B1806184B984B140
S11302D0837D84B98CB58F7E8CBD8CB5462B242B45
S11302E0282B20642CBD0895EE0FFF1F0590F49178
S10B02F0E02D0994F894FFCFFE
S9030000FC
